S0110000445331384232305F322E73726563DE
S113000012C02CC02BC02AC029C028C02DC626C0AF
S113001025C024C023C022C021C020C01FC01EC0D0
S11300201DC01CC01BC011241FBECFE5D4E0DEBF21
S1130030CDBF11E0A0E6B0E0E8E0F4E102C0059035
S11300400D92A836B107D9F721E0A8E6B1E001C0C6
S11300501D92AF38B207E1F72DD6D4C9D1CFFC0138
S1130060A081B1814E9121E030E0C901028002C03B
S1130070880F991F0A94E2F7842B8C938FEB93E0FB
S11300800197F1F700C00000A081B1819E91A90100
S1130090028002C0440F551F0A94E2F7842F809512
S11300A089238C9395ED9A95F1F70000A081B18195
S11300B012978C91028002C0220F331F0A94E2F738
S11300C08223EFE1F3E03197F1F700C000000895D7
S11300D0FC01A081B1818E9121E030E0028002C058
S11300E0220F331F0A94E2F7282B2C936623A9F0DE
S11300F088E28A95F1F7A081B1812E9181E090E0A8
S1130100028002C0880F991F0A94E2F78095822327
S11301108C9388E78A95F1F7089580EA8A95F1F738
S1130120A081B1812E9181E090E0028002C0880F0D
S1130130991F0A94E2F7809582238C930895FC0119
S1130140A081B1814E9181E090E09C01028002C0C7
S1130150220F331F0A94E2F7242B2C932AE02A95CA
S1130160F1F700C0A081B1812E91028002C0880FF6
S1130170991F0A94E2F7809582238C9385E18A95EE
S1130180F1F70000A081B18112972C9130E0C901F0
S1130190028002C0959587950A94E2F7817090E8F1
S11301A09A95F1F70895EF92FF920F931F93CF93CF
S11301B0DF937C01D62F08E010E0C1E06D2F6C23A3
S11301C0C70186DFCC0F01501109C1F7DF91CF9130
S11301D01F910F91FF90EF900895EF92FF920F936C
S11301E01F93CF93DF937C01C8E0D0E011E000E0DF
S11301F0C701A5DF8111012B110F2197C9F7802FAA
S1130200DF91CF911F910F91FF90EF900895662396
S1130210B1F0FC016150262F30E02F5F3F4F280FD3
S1130220391F80E09191892798E04CE8869508F47D
S113023084279A95D9F7E217F307A1F7089580E088
S11302400895EF92FF920F931F93CF93DF938C0146
S113025063E3A9DFE801239678018BE0E80EF11C43
S1130260C801BBDF8993CE15DF05D1F767E0C8016C
S11302700396CDDF91E0F8012285281390E0892FC1
S1130280DF91CF911F910F91FF90EF9008951F93ED
S1130290CF93DF93EC01798368834A83FB01308138
S11302A081E090E0FC0102C0EE0FFF1F4A95E2F7E7
S11302B02E2F20952323FB012083E881F9812291AD
S11302C00A8002C0880F991F0A94E2F7809582235E
S11302D08083CE01C4DE182F811110C0CE01B1DF9E
S11302E0882371F08B81803139F0883259F481E0B0
S11302F08C8B8FE78F8707C01C8A05C011E003C071
S113030011E001C011E0812FDF91CF911F91089579
S1130310EF92FF920F931F93CF93DF938C019FDE95
S11303206CECC80140DF6EEBC8013DDFE8012B96A1
S1130330780184E1E80EF11CC8014FDF8993CE15E2
S1130340DF05D1F768E0C8010B9661DF91E0F801A1
S11303502389281390E0892FDF91CF911F910F916A
S1130360FF90EF900895CF93DF93EC0178DE6CEC6F
S1130370CE0119DF64E4CE0116DF8F858F3371F06F
S11303808F35B1F08F31F1F42FE78BE492E02150F7
S113039080409040E1F700C000001DC02FEF86E9C7
S11303A094E0215080409040E1F700C0000013C069
S11303B02FEB87E299E0215080409040E1F700C0A4
S11303C0000009C02FE78FE492E121508040904063
S11303D0E1F700C00000CE019BDFDF91CF910895CB
S11303E0FC012489213009F467870895CF93DF93B2
S11303F0EC0135DE6CECCE01D6DE6EE4CE01D3DE4C
S11304006D85CE01D0DE6E85CE01CDDE8C89813046
S113041019F46F85CE01C7DEDF91CF910895FC01F9
S1130420648570E0762F66278385682B772314F420
S11304302FEF01C021E0848981110BC0072E000C2D
S1130440880B990B9BD620E030E040E05FE3FAD6BE
S1130450089587858F3359F020F48F3109F450C003
S113046071C08F3521F18F3709F43FC06BC0AB01E8
S1130470772324F444275527461B570BCA01992395
S11304800CF40396AC01559547955595479524036F
S1130490B001259F700D1124072E000C880B990BB9
S11304A06DD620E030E040E85EE3CCD60895AB01A1
S11304B0772324F444275527461B570BCA01992355
S11304C00CF40196AC01559547952403B001259F82
S11304D0700D1124072E000C880B990B4FD620E0C9
S11304E030E040E05EE3AED60895072E000C880BA2
S11304F0990B44D620E030E040E85DE3A3D60895AC
S1130500AB01772324F444275527461B570BCA0114
S113051099230CF40796AC01559547955595479545
S1130520559547952403B001259F700D1124072E7E
S1130530000C880B990B22D620E030E040E05FE30A
S113054081D6089560E070E0CB010895E199FECF73
S11305509FBB8EBB6DBBE29AE19A0895E199FECFF1
S11305609FBB8EBBE09A8DB30895EF92FF920F93D9
S11305701F93CF93DF93EB01209769F08A017C01ED
S1130580E41AF50AC701800F911FE8DFF80181938F
S11305908F012197B9F7DF91CF911F910F91FF90B0
S11305A0EF900895EF92FF920F931F93CF93DF93F1
S11305B08B01672B79F0E42EF52EC82FD92FF70184
S11305C061917F01CE01C2DF01501109219601150D
S11305D01105A9F7DF91CF911F910F91FF90EF9033
S11305E008951F93CF93DF93CDB7DEB72E970FB641
S11305F0F894DEBF0FBECDBF80916E018823D9F081
S11306001E8240E061E0CE0106967DD48BE78D83A7
S113061041E061E0CE01059676D410E51C8342E00A
S113062061E0CE0104966FD41B8343E061E0CE0108
S1130630039669D438C0FE01379688E0DF011D9225
S11306408A95E9F790916F012DEC929F212D112449
S1130650269526952695822F880F382F330F330F32
S1130660380F892F831B888789E2989F912D112445
S113067092959F70990F392F330F330F930F291BC6
S11306802F8340E062E0CF01DCD483E68A8342E03A
S113069061E0CE01029637D489E3898343E061E0C7
S11306A0CE01019630D42E960FB6F894DEBF0FBE5D
S11306B0CDBFDF91CF911F910895CF93DF9300D0E9
S11306C000D0CDB7DEB7809169018F5F8093690157
S11306D08E31D1F480916C01811104C080916B0141
S11306E0882359F080916A0181110AC081E08093C6
S11306F06A0182E690E0F4D405C080916A01811118
S113070010926A011092690180916A01811102C0FC
S113071068DF2FC0809168018F5F80936801843007
S113072018F0109268010BC0813031F040F0823033
S113073049F0833051F00CC089E099E00BC08CE0A3
S113074091E208C083E098E105C086E090E302C02E
S113075080E090E099838A831B821C8220916B0144
S1130760222311F09B838C8340E064E0CE01019648
S1130770CAD30F900F900F900F90DF91CF910895EF
S11307809091740180916F01891758F080916C01E8
S1130790811107C0929A81E080936C0181E790E017
S11307A09FD49091750180916F01891758F08091C1
S11307B06B01811107C0939A81E080936B0180E8FB
S11307C090E08ED420916F0130E0E2E7F1E0828185
S11307D090E04581841B91092817390754F48091CE
S11307E06C01882331F0929810926C018FE890E0AC
S11307F077D420916F0130E0E2E7F1E0838190E06B
S11308004581841B91092817390754F480916B01A1
S1130810882331F0939810926B018DE990E060D4B5
S1130820089542E751E068E070E080E090E0BADECD
S11308300895CF93DF93CDB7DEB72A970FB6F89418
S1130840DEBF0FBECDBF42E751E068E070E080E05C
S113085090E08BDE8091720190917301863B25EAD2
S11308609207D9F04AE0BE016F5F7F4F98D5CE0161
S1130870019636D483EE90E033D4E2E7F1E086EBE0
S113088095EA9183808381E2828388E2838387E08F
S1130890848383E08583C5DF03C08BEA90E020D4A2
S11308A02A960FB6F894DEBF0FBECDBFDF91CF916D
S11308B00895662309F45DC0813061F028F0823028
S11308C079F0833099F017C0E2E7F1E08281680F94
S11308D0628311C0E2E7F1E08381680F63830BC098
S11308E0E2E7F1E08581680F658305C0E2E7F1E0A6
S11308F08481680F648380917401893140F4E2E754
S1130900F1E089E182838381893128F011C09091DB
S11309107501993140F4E2E7F1E089E18383828152
S11309208D3318F40CC08D3318F08CE3809374016C
S1130930809175018D3318F08CE38093750180915B
S11309407701811104C081E08093770105C08C3068
S113095018F08BE08093770180917601811104C0B7
S113096081E0809376010895883018F087E08093C1
S1130970760108952F923F924F925F926F927F92E9
S11309808F929F92AF92BF92CF92DF92EF92FF929B
S11309900F931F93CF93DF9300D000D0CDB7DEB772
S11309A019821A821B821C828CED95E028EC30E0BF
S11309B0F9013197F1F70197D9F7C12CD12CE12C2A
S11309C0F12CB12C7724739455245A940F2EF8E704
S11309D06F2EF02D0F2EFBED2F2EF02D0F2EF2E7A4
S11309E08F2EF1E09F2EF02D0F2EFDECAF2EF02D6B
S11309F00F2EF4EF3F2EF02D0F2EFCE74F2EF02D8F
S1130A0008EC10E099990CC08FEFE81AF80AA5E0F9
S1130A10EA16F1044CF005DF8091760114D2B8C0D7
S1130A20BFEFCB1ADB0A02C0C12CD12C9A9904C0A7
S1130A30C12CD12C672D01C06B2D9B9903C0C12CF7
S1130A40D12C652D81E0E816F10481F124F4E11440
S1130A50F10461F088C0B2E0EB16F10409F445C07A
S1130A6083E0E816F10409F45FC07DC08B2D21DF1B
S1130A70698286E88A83D4011296EC91EA9D812DDD
S1130A801124869586958695A82FB0E0A95ABE4F65
S1130A909C919B83880F982F990F990F890FE81BBE
S1130AA0F0E0E95AFE4F80818C835DC0872D01DF21
S1130AB069822A82D4011396EC91EA9D812D112436
S1130AC0869586958695A82FB0E0A95ABE4F9C912D
S1130AD09B83880F982F990F990F890FE81BF0E0DB
S1130AE0E95AFE4F80818C833EC082E0E2DE698257
S1130AF03A82D4011596EC91EA9D812D11248695B4
S1130B0086958695A82FB0E0A95ABE4F9C919B83E9
S1130B10880F982F990F990F890FE81BF0E0E95A75
S1130B20FE4F80818C831FC083E0C3DE4982B0ED19
S1130B30BA83D4011496EC91EA9D812D11248695F3
S1130B4086958695A82FB0E0A95ABE4F9C919B83A9
S1130B50880F982F990F990F890FE81BF0E0E95A35
S1130B60FE4F80818C834B2D64E0CE010196CBD166
S1130B708CED95E0F8013197F1F70197D9F7B4E6D8
S1130B80CB16D1040CF43ECF54DE809176015BD1B8
S1130B900F900F900F900F90DF91CF911F910F91B5
S1130BA0FF90EF90DF90CF90BF90AF909F908F9089
S1130BB07F906F905F904F903F902F900895CF93C8
S1130BC0DF93CDB7DEB72A970FB6F894DEBF0FBE1A
S1130BD0CDBF8091600090916100C5DB8823F1F066
S1130BE080916000909161001ADC9AD260936F0149
S1130BF010926D0110926E018AEB90E071D2809197
S1130C006F014AE0BE016F5F7F4F90E0C8D3CE0111
S1130C10019666D283ED90E063D210C087ED90E038
S1130C205FD281E080936E0180916D018F5F80932C
S1130C306D018A3018F0F894C09AFFCF2A960FB647
S1130C40F894DEBF0FBECDBFDF91CF9108958EB56E
S1130C5088608EBD89B7806189BF80E88BBD1ABC6E
S1130C608EB585608EBD08951F920F920FB60F92B8
S1130C7011242F933F934F935F936F937F938F939D
S1130C809F93AF93BF93EF93FF93F89498DF78DD2E
S1130C907894FF91EF91BF91AF919F918F917F9144
S1130CA06F915F914F913F912F910F900FBE0F90D5
S1130CB01F901895CF93DF93CDB7DEB765970FB626
S1130CC0F894DEBF0FBECDBF81E1E6E4F1E0DE01C2
S1130CD0159601900D928A95E1F760E875E280E03F
S1130CE090E0DBD1CE010596FBD1A3DD4ED0198275
S1130CF086E78A8380E38B831C8240E064E0CE0134
S1130D00019601D1809176019ED080E395E728EC8D
S1130D1030E0F9013197F1F70197D9F7B89A8A9A37
S1130D208B9AA198A298A39840E065E370E0809123
S1130D30600090916100ABDA882329F086EE90E0A0
S1130D40CFD1C09AFFCF81E291E0CAD180DF7894FD
S1130D506FE1809160009091610042DB80916000BE
S1130D609091610043DBFF24F39408EC10E0A5DCD0
S1130D70999B00DE88B38F2588BB88EE93E0F80149
S1130D803197F1F70197D9F7F2CFA498A59885B3D5
S1130D908F7C85BBA49A8FE891E00197F1F700C09E
S1130DA0000088E090E4A59AE7ECF0E03197F1F7D1
S1130DB000C0000090FF02C0A49801C0A49AE7EC10
S1130DC0F0E03197F1F700C00000A598EFE8F1E0FA
S1130DD03197F1F700C000009695815021F7A59A4C
S1130DE0A4988FE891E00197F1F700C00000A5985E
S1130DF0E7ECF0E03197F1F700C000009C9BA49A67
S1130E0087EC90E00197F1F700C00000A59AE7ECA9
S1130E10F0E03197F1F700C00000A49A87EC90E06D
S1130E200197F1F700C00000A598EFE8F1E03197D1
S1130E30F1F700C00000A4988FE891E00197F1F762
S1130E4000C0000008958770886080937101A49A9F
S1130E508FE891E00197F1F700C0000080917101E3
S1130E608F70806898E0A59AE7ECF0E03197F1F78D
S1130E7000C0000080FF02C0A49801C0A49AE7EC5F
S1130E80F0E03197F1F700C00000A598EFE8F1E039
S1130E903197F1F700C000008695915021F7A59A8B
S1130EA0A4988FE891E00197F1F700C00000A5989D
S1130EB0E7ECF0E03197F1F700C000009C9BA49AA6
S1130EC087EC90E00197F1F700C00000A59AE7ECE9
S1130ED0F0E03197F1F700C00000A49A87EC90E0AD
S1130EE00197F1F700C00000A598EFE8F1E0319711
S1130EF0F1F700C00000A4988FE891E00197F1F7A2
S1130F0000C0000008959C01A49A8FE891E0019725
S1130F10F1F700C000004370406C98E0A59AA7EC7C
S1130F20B0E01197F1F700C0000040FF02C0A498A0
S1130F3001C0A49AE7ECF0E03197F1F700C000009B
S1130F40A598AFE8B1E01197F1F700C0000046950D
S1130F50915021F7A59AA498EFE8F1E03197F1F7C1
S1130F6000C00000A59887EC90E00197F1F700C05D
S1130F7000009C9BA49AA7ECB0E01197F1F700C085
S1130F800000662309F440C0F9016150462F50E087
S1130F904F5F5F4F420F531F219198E0A59AA7EC32
S1130FA0B0E01197F1F700C0000020FF02C0A49840
S1130FB001C0A49AA7ECB0E01197F1F700C00000BB
S1130FC0A598AFE8B1E01197F1F700C000002695AD
S1130FD0915021F7A59AA4988FE891E00197F1F731
S1130FE000C00000A598A7ECB0E01197F1F700C08D
S1130FF000009C9BA49A87EC90E00197F1F700C055
S11310000000E417F50741F6A59AA7ECB0E01197A4
S1131010F1F700C00000A49AE7ECF0E03197F1F793
S113102000C00000A5988FE891E00197F1F700C097
S11310300000A498AFE8B1E01197F1F700C00000F8
S113104008950F931F93CF93DF9300D000D0CDB7B3
S1131050DEB76623B1F0DC018E010F5F1F4F2FEF67
S1131060260F30E02F5F3F4F820F931FED91F0E08A
S1131070E95AFE4F2081F80121938F01A817B9077F
S1131080A9F7CE0101963FDF0F900F900F900F90BC
S1131090DF91CF911F910F910895DC01CB01880F4F
S11310A0991FAA1FBB1F880F991FAA1FBB1F9C0152
S11310B0AD01220F331F441F551F220F331F441F3E
S11310C0551F60E072E18AE790E047D1215029B9C9
S11310D088E18AB986E880BD81E080937001089533
S11310E0CF93DF93DC01809170018823B1F0ED018F
S11310F020E030E006C05D9BFECF89918CB92F5F64
S11311003F4FFD0101900020E9F73197EA1BFB0BEB
S11311102E173F0780F35D9BFECFDF91CF9108959B
S113112070D088F09F5790F0B92F9927B751A0F04D
S1131130D1F0660F771F881F991F1AF0BA95C9F767
S113114012C0B13081F077D0B1E0089574C0672F38
S1131150782F8827B85F39F0B93FCCF38695779517
S11311606795B395D9F73EF4909580957095619500
S11311707F4F8F4F9F4F0895E89409C097FB3EF42B
S113118090958095709561957F4F8F4F9F4F9923D0
S1131190A9F0F92F96E9BB279395F695879577954E
S11311A06795B795F111F8CFFAF4BB0F11F460FF0E
S11311B01BC06F5F7F4F8F4F9F4F16C0882311F066
S11311C096E911C0772321F09EE8872F762F05C07A
S11311D0662371F096E8862F70E060E02AF09A9515
S11311E0660F771F881FDAF7880F9695879597F90A
S11311F0089557FD9058440F551F59F05F3F71F003
S11312004795880F97FB991F61F09F3F79F0879569
S11312100895121613061406551FF2CF4695F1DFF2
S113122008C0161617061806991FF1CF8695710582
S1131230610508940895E894BB2766277727CB01B6
S113124097F908950BD078C069D028F06ED018F0C3
S1131250952309F05AC05FC01124EECFCADFA0F372
S1131260959FD1F3950F50E0551F629FF001729F37
S1131270BB27F00DB11D639FAA27F00DB11DAA1F56
S1131280649F6627B00DA11D661F829F2227B00DA3
S1131290A11D621F739FB00DA11D621F839FA00D2E
S11312A0611D221F749F3327A00D611D231F849F7E
S11312B0600D211D822F762F6A2F11249F575040D5
S11312C08AF0E1F088234AF0EE0FFF1FBB1F661F70
S11312D0771F881F91505040A9F79E3F510570F029
S11312E014C0AACF5F3FECF3983EDCF38695779564
S11312F06795B795F795E7959F5FC1F7FE2B880F24
S1131300911D9695879597F9089597F99F6780E8B9
S113131070E060E008959FEF80EC089500240A9443
S11313201616170618060906089500240A941216BC
S11313301306140605060895092E0394000C11F4EF
S1131340882352F0BB0F40F4BF2B11F460FF04C09C
S11313506F5F7F4F8F4F9F4F0895A1E21A2EAA1BF4
S1131360BB1BFD010DC0AA1FBB1FEE1FFF1FA21751
S1131370B307E407F50720F0A21BB30BE40BF50B4E
S1131380661F771F881F991F1A9469F760957095D7
S1131390809590959B01AC01BD01CF010895BB27B9
S11313A04A3031F4992322F4BDE2909581959F4F00
S11313B001C0BB27FB015527AA27880F991FAA1F25
S11313C0A41710F0A41B83955051B9F7A05DAA335C
S11313D008F0A95DA193009779F7B111B193119227
S11313E0CB0100C0DC01FC01672F71917723E1F789
S11313F0329704C07C916D9370836291AE17BF07DE
S10B1400C8F30895F894FFCF2E
S11314087A01416E696D6174696F6E206F6E0D0AA1
S11314180046616E2031207374617274730D0A0082
S113142846616E2032207374617274730D0A00462B
S1131438616E20312073746F70730D0A0046616EFB
S113144820322073746F70730D0A005365747469C5
S11314586E6773206F6B210D0A0043757272656E97
S1131468742054656D706572617475726520697352
S11314783A2000430D0A00435243206572726F728A
S11314882121210D0A004572726F72212121204306
S1131498616E206E6F742066696E6420312D576901
S11314A87265206465766963652061747461636834
S11314B86564206F6E2074686520627573210D0A57
S11314C800312D5769726520646576696365206407
S11314D865746563746564206F6E20746865206242
S11314E875732E0D0A002D2D2D2D537461727421E0
S11314F82D2D2D2D0D0A003F065B4F666D7D077F50
S10B15086F777C395E797100F4
S9030000FC
